:0400000058EF06F0BF
:09080000005445434C413A00004C
:10080A00070E816E00F081B80FD0070E026E580EE7
:10081A00016E5A0EE82EFED7012EFCD7022EFAD709
:10082A0081A8FED7010E120081BA0FD0070E026E00
:10083A00580E016E5A0EE82EFED7012EFCD7022E54
:10084A00FAD781AAFED7040E120081BC0FD0070E78
:10085A00026E580E016E5A0EE82EFED7012EFCD7F4
:10086A00022EFAD781ACFED7070E120081BE0FD036
:10087A00070E026E580E016E5A0EE82EFED7012E92
:10088A00FCD7022EFAD781AEFED7150E12000B0E38
:10089A00816E00F081B80FD0070E026E580E016EFD
:1008AA005A0EE82EFED7012EFCD7022EFAD781A8BF
:1008BA00FED7020E120081BA0FD0070E026E580E32
:1008CA00016E5A0EE82EFED7012EFCD7022EFAD759
:1008DA0081AAFED7050E120081BC0FD0070E026E48
:1008EA00580E016E5A0EE82EFED7012EFCD7022EA4
:1008FA00FAD781ACFED7080E120081BE0FD0070EC0
:10090A00026E580E016E5A0EE82EFED7012EFCD743
:10091A00022EFAD781AEFED7000E12000D0E816E9E
:10092A0000F081B80FD0070E026E580E016E5A0EF3
:10093A00E82EFED7012EFCD7022EFAD781A8FED7C1
:10094A00030E120081BA0FD0070E026E580E016E06
:10095A005A0EE82EFED7012EFCD7022EFAD781AA0C
:10096A00FED7060E120081BC0FD0070E026E580E7B
:10097A00016E5A0EE82EFED7012EFCD7022EFAD7A8
:10098A0081ACFED7090E120081BE0FD0070E026E8F
:10099A00580E016E5A0EE82EFED7012EFCD7022EF3
:1009AA00FAD781AEFED7160E12000E0E816E00F037
:1009BA0081B80FD0070E026E580E016E5A0EE82E3D
:1009CA00FED7012EFCD7022EFAD781A8FED7110E28
:1009DA00120081BA0FD0070E026E580E016E5A0E1F
:1009EA00E82EFED7012EFCD7022EFAD781AAFED70F
:1009FA00120E120081BC0FD0070E026E580E016E45
:100A0A005A0EE82EFED7012EFCD7022EFAD781AC59
:100A1A00FED7130E120081BE0FD0070E026E580EBB
:100A2A00016E5A0EE82EFED7012EFCD7022EFAD7F7
:100A3A0081AEFED7140E1200A00E1200026E0F0E27
:100A4A0083160F0E95169694969096928D948D9085
:100A5A008D9250EC06F0300EF1EC05F047EC06F002
:100A6A0047EC06F0300EF1EC05F047EC06F047ECE7
:100A7A0006F0320EF1EC05F010EC06F00009D8A4ED
:100A8A00FBD710EC06F00009D8A4FBD70250F1EC12
:100A9A0005F010EC06F00009D8A4FBD7080EF1EC1B
:100AAA0005F010EC06F00009D8A4FBD70F0EF1EC04
:100ABA0005F010EC06F00009D8A4FBD7010EF1EC02
:100ACA0005F010EC06F00009D8A4FBD7040EF1ECEF
:100ADA0005F010EC06F00009D8A4FBD7800EB2ECA2
:100AEA0005F01200F19E0F0EC16EF00E936E000E0D
:100AFA00816E000E956E000E836E96909692969475
:100B0A00849084928494280E23EC05F0010EF1EC73
:100B1A0005F00D0E046EFC0EE82EFED7042EFCD74F
:100B2A00870EF1EC05F0010E026E080E036E2DEC35
:100B3A0006F0C70EF1EC05F005EC04F0056EA00E08
:100B4A000518D8B4F9D70550300F056EC70EF1EC69
:100B5A0005F00550D2EC05F0EFD7016E0F0E951691
:100B6A000F0E831601508009F00B83128D948D901D
:100B7A005FEC06F08D825FEC06F08D920F0E831605
:100B8A000138F00BF00B83125FEC06F08D825FECFC
:100B9A0006F08D92F00E95121200016E0F0E951648
:100BAA000F0E83160150F00B83128D808D945FEC2B
:100BBA0006F08D825FEC06F08D920F0E83160138D7
:100BCA00F00BF00B83125FEC06F08D825FEC06F0FF
:100BDA008D92F00E95121200016E0F0E95160F0EE1
:100BEA0083160150F00B83128D948D905FEC06F002
:100BFA008D825FEC06F08D920F0E83160138F00B92
:100C0A00F00B83125FEC06F08D825FEC06F08D929A
:100C1A00F00E951212008D848D905FEC06F08D8295
:100C2A005FEC06F083AE0AD08D925FEC06F08D82FF
:100C3A005FEC06F08D928D94010E12008D925FEC9E
:100C4A0006F08D825FEC06F08D928D94000E1200F4
:100C5A000FD010EC06F00009D8A4FBD702C0F6FFAB
:100C6A0003C0F7FF0800F550D2EC05F0024A032A48
:100C7A0002C0F6FF03C0F7FF0800F5500009D8B418
:100C8A001200E7D7210E016E760EE82EFED7012E4E
:100C9A00FCD700D01200620E016E660EE82EFED757
:100CAA00012EFCD71200000EF86E080EF76E000136
:0E0CBA0077EF05F0210EE82EFED700F01200B5
:020000040020DA
:08000000FFFFFFFFFFFFFFFF00
:020000040030CA
:0E000000040C1F1EFF8101FF0FC00FE00F4018
:00000001FF
