:04000000C8EF3EF017
:107D86003F065B4F666D7D077F67860EF66E7D0E3E
:107D9600F76E000EF86E00EE18F010EE0AF009000D
:107DA600F5CFEEFFE550E150FAE1000139EF3FF083
:107DB6000B6E20EE18F010EE01F0090EDBCFE3FF9C
:107DC600E806FCE20B50010D010EF324D96E000EFD
:107DD600F420DA6EDF50120003500410D8B418D025
:107DE600010E056E04D0D89003360436052A04AE7B
:107DF600FAD70350015C04500258D8A004D00350AF
:107E0600015E0450025AD89004320332052EF1D78F
:107E160001C001F002C002F01200000E066E000E54
:107E2600056E03500410D8B41CD0010E076E04D0A2
:107E3600D89003360436072A04AEFAD7D89005360A
:107E460006360350015C04500258D8A005D00350F2
:107E5600015E0450025A0580D89004320332072E80
:107E6600EDD705C001F006C002F012000F0EC16E7C
:107E7600000E956E93689294929A96909694000E40
:107E8600836E849484908094809A000E176E000E00
:107E9600166E16C00CF017C00DF087EC3FF081B0DF
:107EA60019D017BE06D00F0E165C270E1758D8B07D
:107EB60011D0040E156ECF0E146E020EE82EFED7EC
:107EC600142EFCD7152EFAD781A004D00A0E16263A
:107ED600000E172281A217BEDCD7175003E1160445
:107EE600D8A0D7D7040E156ECF0E146E020EE82E4C
:107EF600FED7142EFCD7152EFAD781A2CAD7FB0EB1
:107F06001626FF0E1722C5D70CC012F00DC013F0AF
:107F160012C001F013C002F0030E046EE80E036EE9
:107F260010EC3FF001500E6E12C001F013C002F0CB
:107F3600030E046EE80E036EEFEC3EF001C012F085
:107F460002C013F012C001F013C002F0000E046E5E
:107F5600640E036E10EC3FF001500F6E12C001F07C
:107F660013C002F0000E046E640E036EEFEC3EF0DA
:107F760001C012F002C013F012C001F013C002F0EB
:107F8600000E046E0A0E036E10EC3FF00150106EE8
:107F960012C001F013C002F0000E046E0A0E036E4A
:107FA600EFEC3EF00150116E0E50DBEC3EF0836EAE
:107FB600808AA60EE82EFED700D0809A0F50DBEC02
:107FC6003EF0836E8084A60EE82EFED700D0809405
:107FD6001050DBEC3EF0836E8480A60EE82EFED7B2
:107FE60000D084901150DBEC3EF0836E8484A60EA4
:0A7FF600E82EFED700D0849412009C
:020000040020DA
:08000000FFFFFFFFFFFFFFFF00
:020000040030CA
:0E000000040C1F1EFF8101FF0FC00FE00F4018
:00000001FF
