:0400000069EF3FF075
:107ED20000016CEF3FF0000E956E030E946E836806
:107EE200000E046E000E036E000E066E010E056E8D
:107EF20082B040D0FA0EE82EFED782A03BD00D0E03
:107F0200026EAF0E016EB60EE82EFED7012EFCD722
:107F1200022EFAD700D0000E066E010E056E055035
:107F2200FF0A836E000E046E000E036E04BE03D0C1
:107F320004501FE11AD00D0E026EAF0E016EB60E86
:107F4200E82EFED7012EFCD7022EFAD700D0D89009
:107F52000534056E0634066E0550FF0A836E034A29
:107F6200042A04BEE8D7045004E1050E035CD8A03D
:107F7200E2D7836882B2BCD7FA0EE82EFED782A27D
:107F8200B7D7000E066E080E056E0D0E026EAF0E0E
:107F9200016EB60EE82EFED7012EFCD7022EFAD7BE
:107FA20000D00550FF0A836E000E046E000E036EB1
:107FB20004BE03D0045021E11CD00D0E026EAF0EA0
:107FC200016EB60EE82EFED7012EFCD7022EFAD78E
:107FD20000D006340630016E0530056E01C006F091
:107FE2000550FF0A836E034A042A04BEE6D70450F2
:0E7FF20004E1050E035CD8A0E0D7836879D7C0
:020000040020DA
:08000000FFFFFFFFFFFFFFFF00
:020000040030CA
:0E000000040C1F1EFF8101FF0FC00FE00F4018
:00000001FF
