:04000000CCEF3FF012
:107F98000001CFEF3FF0000E956E030E946E8368DC
:107FA800000E026E000E016E82B012D0FA0EE82E9C
:107FB800FED782A00DD002BE06D0025009E10A0EFB
:107FC800015CD8B005D0014A022A0150FF0A836E2D
:107FD80082B2EAD7FA0EE82EFED782B202BEE4D702
:107FE800025003E10104D8A0DFD70106D8A0020699
:087FF8000150FF0A836ED8D787
:020000040020DA
:08000000FFFFFFFFFFFFFFFF00
:020000040030CA
:0E000000040C1F1EFF8101FF0FC00FE00F4018
:00000001FF
