:0400000007EF00F016
:10000800558209ED00F0A7EF00F00600FACF02F0E4
:10001800FBCF03F0E9CF04F0EACF05F0E1CF06F01B
:10002800E2CF07F0D9CF08F0DACF09F0F3CF0AF022
:10003800F4CF0BF0F6CF0CF0F7CF0DF0F8CF0EF0B1
:10004800F5CF0FF055C010F056C011F057C012F0A0
:1000580058C013F09E90EB0ECF6EA70ECE6E20EE1A
:1000680044F010EE14F00F0EDBCFE3FFE806FCE2DD
:1000780020EE34F010EE24F00F0EDBCFE3FFE8069D
:10008800FCE25450010D140EF324D96E000EF42036
:10009800DA6EDF50BE6EBD50F00B0C09BD6E5450C9
:1000A800010D240EF324D96E000EF420DA6EDF5011
:1000B800016E013ABD500118CF0B0118BD6E542ACC
:1000C800100E5418D8A402D0000E546E13C058F065
:1000D80012C057F011C056F010C055F00FC0F5FF10
:1000E8000EC0F8FF0DC0F7FF0CC0F6FF0BC0F4FF01
:1000F8000AC0F3FF09C0DAFF08C0D9FF07C0E2FF52
:1001080006C0E1FF05C0EAFF04C0E9FF03C0FBFF2A
:1001180002C0FAFF559211000F0EC16E9494CD9E45
:10012800CD9CCD9ACD98CD96CD92CD809D80D09EF8
:10013800F28EF28CEB0ECF6EA70ECE6E7C0ECB6ECF
:10014800050ECA6EFFD77A0EF66E010EF76E000E18
:10015800F86E00EE34F010EE20F00900F5CFEEFF57
:10016800E550E150FAE1546A55905592000190EF3C
:1001780000F002020301000103020202010300036E
:1001880001023F566B787D786B563F2712050005B4
:0201980012272C
:020000040020DA
:08000000FFFFFFFFFFFFFFFF00
:020000040030CA
:0E000000040C1F1EFF8101FF0FC00FE00F4018
:00000001FF
