:040000009DEF3EF042
:107D2F003F065B4F666D7D077F67802F0EF66E7D7A
:107D3F000EF76E000EF86E00EE1EF010EE0BF0094F
:107D4F0000F5CFEEFFE550E150FAE10001C4EF3E40
:107D5F00F00C6E20EE1EF010EE01F00A0EDBCFE3FA
:107D6F00FFE806FCE20C50010D010EF324D96E0062
:107D7F000EF420DA6EDF5012000F0EC16E000E955A
:107D8F006EF00E936E96949690929A929484948439
:107D9F00908094809AF19E000E1B6E000E1A6E005A
:107DAF000E1D6E040E1C6E52EC3FF0196E19501A18
:107DBF006E1B6A0A0E1A181B10D8B415D01AC00DF4
:107DCF00F01BC00EF01CC00FF01DC010F006EC3FF2
:107DDF00F01DBEE5D71D5003E11C04D8A0E0D71C51
:107DEF0006D8A01D06E0D71AC00DF01BC00EF01C60
:107DFF00C00FF01DC010F006EC3FF0D5D7040E0FEA
:107E0F00181010D8A404D00DC017F00EC018F0032E
:107E1F000E0F181010D8A404D00DC015F00EC016F8
:107E2F00F0020E0F181010D8A404D00DC013F00ECE
:107E3F00C014F00F041010D8A404D00DC011F00E10
:107E4F00C012F01750B0EC3EF0836E808AC80E005F
:107E5F00D0E82EFDD7809A1550B0EC3EF0836E809F
:107E6F0084C80E00D0E82EFDD780941350B0EC3E9E
:107E7F00F0836E8480C80E00D0E82EFDD784901159
:107E8F0050B0EC3EF0836E8484C80E00D0E82EFD17
:107E9F00D784941200070E816E00F081B808D0C805
:107EAF000E00D0E82EFDD781A8FED7010E1200815B
:107EBF00BA08D0C80E00D0E82EFDD781AAFED7048D
:107ECF000E120081BC08D0C80E00D0E82EFDD7815D
:107EDF00ACFED7070E120081BE08D0C80E00D0E846
:107EEF002EFDD781AEFED70E0E12000B0E816E0047
:107EFF00F081B808D0C80E00D0E82EFDD781A8FEBB
:107F0F00D7020E120081BA08D0C80E00D0E82EFD9D
:107F1F00D781AAFED7050E120081BC08D0C80E006B
:107F2F00D0E82EFDD781ACFED7080E120081BE0817
:107F3F00D0C80E00D0E82EFDD781AEFED7000E12AE
:107F4F00000D0E816E00F081B808D0C80E00D0E889
:107F5F002EFDD781A8FED7030E120081BA08D0C814
:107F6F000E00D0E82EFDD781AAFED7060E12008193
:107F7F00BC08D0C80E00D0E82EFDD781ACFED709C3
:107F8F000E120081BE08D0C80E00D0E82EFDD7819A
:107F9F00AEFED70F0E12000E0E816E00F081B808E4
:107FAF00D0C80E00D0E82EFDD781A8FED70A0E123A
:107FBF000081BA08D0C80E00D0E82EFDD781AAFEE6
:107FCF00D70B0E120081BC08D0C80E00D0E82EFDD2
:107FDF00D781ACFED70C0E120081BE08D0C80E00A0
:107FEF00D0E82EFDD781AEFED70D0E12000A0E126D
:017FFF000081
:020000040020DA
:08000000FFFFFFFFFFFFFFFF00
:020000040030CA
:0E000000040C1F1EFF8101FF0FC00FE00F4018
:00000001FF
