:0400000064EF05F0B4
:100800000044757479204379636C65203D2032354E
:10081000250044757479204379636C65203D203749
:10082000352500313220566463204C616D7061645F
:0308300061000064
:10083400026E0F0E83160F0E95169694969096924E
:100844008D948D908D925CEC05F0300EFDEC04F0EF
:1008540053EC05F053EC05F0300EFDEC04F053ECD2
:1008640005F053EC05F0320EFDEC04F01CEC05F041
:100874000009D8A4FBD71CEC05F00009D8A4FBD7C9
:100884000250FDEC04F01CEC05F00009D8A4FBD7E1
:10089400080EFDEC04F01CEC05F00009D8A4FBD70D
:1008A4000F0EFDEC04F01CEC05F00009D8A4FBD7F6
:1008B400010EFDEC04F01CEC05F00009D8A4FBD7F4
:1008C400040EFDEC04F01CEC05F00009D8A4FBD7E1
:1008D400800EBEEC04F01200000E956E000E966EB3
:1008E40094929380F19E4D0ECB6E070ECA6E750ED8
:1008F400BB6E1C0EBA6E130EBB6EBA50CF0B200922
:10090400BA6E280E1AEC04F0010EFDEC04F00D0E84
:10091400046EFC0EE82EFED7042EFCD7810EFDECEF
:1009240004F0230E026E080E036E39EC05F00C0E73
:10093400FDEC04F081B010D0FA0EE82EFED7C00E04
:10094400FDEC04F0120E026E080E036E39EC05F095
:100954003A0EBB6E2C0E0ED0C00EFDEC04F0010E50
:10096400026E080E036E39EC05F0130EBB6EBA501E
:10097400CF0B2009BA6EDED7016E0F0E95160F0E3F
:10098400831601508009F00B83128D948D906BECCB
:1009940005F08D826BEC05F08D920F0E83160138F5
:1009A400F00BF00B83126BEC05F08D826BEC05F011
:1009B4008D92F00E95121200016E0F0E95160F0E09
:1009C40083160150F00B83128D808D946BEC05F02F
:1009D4008D826BEC05F08D920F0E83160138F00BAF
:1009E400F00B83126BEC05F08D826BEC05F08D92AD
:1009F400F00E95121200016E0F0E95160F0E83164F
:100A04000150F00B83128D948D906BEC05F08D8268
:100A14006BEC05F08D920F0E83160138F00BF00B82
:100A240083126BEC05F08D826BEC05F08D92F00E69
:100A3400951212008D848D906BEC05F08D826BEC19
:100A440005F083AE0AD08D926BEC05F08D826BECD1
:100A540005F08D928D94010E12008D926BEC05F0D1
:100A64008D826BEC05F08D928D94000E12000FD0E8
:100A74001CEC05F00009D8A4FBD702C0F6FF03C0A4
:100A8400F7FF0800F550DEEC04F0024A032A02C026
:100A9400F6FF03C0F7FF0800F5500009D8B41200B0
:100AA400E7D7210E016E760EE82EFED7012EFCD775
:100AB40000D01200620E016E660EE82EFED7012EE3
:100AC400FCD71200000EF86E080EF76E00016EEFF0
:0C0AD40004F0210EE82EFED700F0120006
:020000040020DA
:08000000FFFFFFFFFFFFFFFF00
:020000040030CA
:0E000000040C1F1EFF8101FF0FC00FE00F4018
:00000001FF
