:04000000F0EF07F026
:1008000000436F6E766572736F722041202F204413
:1008100000565F414E4F203D20005F56002C0000E7
:10082000000E0001606F000E616F000E626F000E1F
:10083000636F000E946F000E956F000E966F000EA2
:10084000976F000E986F000E996F000E9A6F000E52
:100850009B6F000E9C6F000E9D6F000E9E6F000E32
:100860009F6F000EA56F000EA66F000EA76F000E03
:10087000A86F000EA46F000E956E000E966E92800B
:100880000E0EC16E010EC26E950EC06E070E0F6E7B
:100890007D0EE82EFED70F2EFCD700F0280EB1EC0F
:1008A00006F0010E6FEC07F00D0E0F6EFC0EE82E39
:1008B000FED70F2EFCD7C282C2B2FED7C450106E34
:1008C0000F6AC3500F24116E000E1020126E136AAF
:1008D00012BE13061350146E0001A451040D640ED1
:1008E000F324D96E000EF420DA6E11C0DEFF12C0C0
:1008F000DEFF13C0DEFF14C0DEFFA42B0A0EA41916
:10090000D8A481D06C5168250F6E6D516921106E8D
:100910006E516A21116E6F516B21126E70510F244E
:10092000136E71511020146E72511120156E735197
:100930001220166E74511324176E75511420186E00
:1009400076511520196E775116201A6E785117249A
:100950001B6E795118201C6E7A5119201D6E7B5127
:100960001A201E6E7C511B241F6E7D511C20206E90
:100970007E511D20216E7F511E20226E80511F242A
:10098000236E81512020246E82512120256E8351B7
:100990002220266E84512324276E85512420286E20
:1009A00086512520296E875126202A6E88512724BA
:1009B0002B6E895128202C6E8A5129202D6E8B5147
:1009C0002A202E6E64512B24016E65512C20026E5C
:1009D00066512D20036E67512E20046E0A0E056E9F
:1009E000000E066E000E076E000E086EF5EC05F0A8
:1009F00001C08CF002C08DF003C08EF004C08FF0F7
:100A0000000E0001A46F8CC001F08DC002F08EC0FA
:100A100003F08FC004F0180E056E130E066E000E64
:100A2000076E000E086E05EC07F001C0A0F002C0D2
:100A3000A1F003C0A2F004C0A3F0A0C001F0A1C0C7
:100A400002F0A2C003F0A3C004F0400E056E420EF7
:100A5000066E0F0E076E000E086EF5EC05F001C075
:100A600090F002C091F003C092F004C093F0A0C0D7
:100A700001F0A1C002F0A2C003F0A3C004F0E80E90
:100A8000056E030E066E000E076E000E086E5BEC20
:100A900006F001C0A5F002C0A6F003C0A7F004C094
:100AA000A8F0A5C001F0A6C002F0A7C003F0A8C03E
:100AB00004F0640E056E000E066E000E076E000E4A
:100AC000086EF5EC05F001C094F002C095F003C08B
:100AD00096F004C097F0A5C001F0A6C002F0A7C030
:100AE00003F0A8C004F0640E056E000E066E000E42
:100AF000076E000E086E5BEC06F001C0A5F002C0A8
:100B0000A6F003C0A7F004C0A8F0A5C001F0A6C0DD
:100B100002F0A7C003F0A8C004F00A0E056E000E94
:100B2000066E000E076E000E086EF5EC05F001C0B3
:100B300098F002C099F003C09AF004C09BF0A5C0E1
:100B400001F0A6C002F0A7C003F0A8C004F00A0E8E
:100B5000056E000E066E000E076E000E086E5BEC52
:100B600006F001C09CF002C09DF003C09EF004C0DE
:100B70009FF0800E6FEC07F0010E026E080E036E00
:100B8000C5EC07F00C0E6FEC07F0C00E6FEC07F031
:100B9000110E026E080E036EABEC07F0C70E6FEC81
:100BA00007F000019051300F50EC07F01D0E026E5F
:100BB000080E036EABEC07F000019451300F50ECBF
:100BC00007F000019851300F50EC07F000019C51E4
:100BD000300F50EC07F0CE0E6FEC07F01A0E026EDD
:100BE000080E036EABEC07F066D6000E0A6E08AE78
:100BF0000AD0081E071E061E056C000E06220722DC
:100C00000822010E0A6E04AE0AD0041E031E021E44
:100C1000016C000E022203220422010E0A1A000EA9
:100C20000B6E000E0C6E000E0D6E000E0E6E05505B
:100C3000061007100810D8B42AD0010E096E06D08D
:100C4000D8900536063607360836092A08AEF8D792
:100C5000D8900B360C360D360E360550015C06501A
:100C600002580750035808500458D8A009D005501E
:100C7000015E0650025A0750035A0850045A0B806E
:100C8000D8900832073206320532092EE1D70A50D1
:100C9000D8B408D00E1E0D1E0C1E0B6C000E0C22BC
:100CA0000D220E220BC001F00CC002F00DC003F0AB
:100CB0000EC004F01200000E0A6E04AE0AD0041E2C
:100CC000031E021E016C000E022203220422010EEA
:100CD0000A6E08AE08D0081E071E061E056C000E20
:100CE0000622072208220550061007100810D8B463
:100CF00024D0010E096E06D0D89005360636073688
:100D00000836092A08AEF8D70550015C065002588B
:100D10000750035808500458D8A008D00550015E69
:100D20000650025A0750035A0850045AD890083205
:100D3000073206320532092EE7D70A50D8B408D058
:100D4000041E031E021E016C000E02220322042256
:100D500001C001F002C002F003C003F004C004F0BF
:100D60001200026E0F0E83160F0E95169694969033
:100D700096928D948D908D92E8EC07F0300E6FEC8A
:100D800007F0DFEC07F0DFEC07F0300E6FEC07F058
:100D9000DFEC07F0DFEC07F0320E6FEC07F08EECC3
:100DA00007F00009D8A4FBD78EEC07F00009D8A4FF
:100DB000FBD702506FEC07F08EEC07F00009D8A4C7
:100DC000FBD7080E6FEC07F08EEC07F00009D8A4F3
:100DD000FBD70F0E6FEC07F08EEC07F00009D8A4DC
:100DE000FBD7010E6FEC07F08EEC07F00009D8A4DA
:100DF000FBD7040E6FEC07F08EEC07F00009D8A4C7
:100E0000FBD7800E30EC07F01200000E096E000ECA
:100E10000A6E000E0B6E000E0C6E01A008D005507D
:100E2000092606500A2207500B2208500C22D8909F
:100E30000536063607360836D890043203320232B9
:100E400001320150021003100410D8A4E6D709C0E3
:100E500001F00AC002F00BC003F00CC004F0120055
:100E6000016E0F0E95160F0E831601508009F00BC0
:100E700083128D948D90F7EC07F08D82F7EC07F0DC
:100E80008D920F0E83160138F00BF00B8312F7ECE6
:100E900007F08D82F7EC07F08D92F00E951212009C
:100EA000016E0F0E95160F0E83160150F00B831274
:100EB0008D808D94F7EC07F08D82F7EC07F08D9222
:100EC0000F0E83160138F00BF00B8312F7EC07F0CE
:100ED0008D82F7EC07F08D92F00E95121200016EE4
:100EE0000F0E95160F0E83160150F00B83128D9482
:100EF0008D90F7EC07F08D82F7EC07F08D920F0ED6
:100F000083160138F00BF00B8312F7EC07F08D829B
:100F1000F7EC07F08D92F00E951212008D848D90F3
:100F2000F7EC07F08D82F7EC07F083AE0AD08D92D4
:100F3000F7EC07F08D82F7EC07F08D928D94010E9F
:100F400012008D92F7EC07F08D82F7EC07F08D928E
:100F50008D94000E12000FD08EEC07F00009D8A47B
:100F6000FBD702C0F6FF03C0F7FF0800F55050ECB6
:100F700007F0024A032A02C0F6FF03C0F7FF080089
:100F8000F5500009D8B41200E7D70FD08EEC07F067
:100F90000009D8A4FBD702C0F6FF03C0F7FF080082
:100FA000F55050EC07F0024A032A02C0F6FF03C0D6
:100FB000F7FF0800F5500009D8B41200E7D7210E5A
:100FC000016E760EE82EFED7012EFCD700D012005F
:100FD000620E016E660EE82EFED7012EFCD71200BF
:100FE000000EF86E080EF76E000110EF04F0210EEF
:080FF000E82EFED700F012000C
:020000040020DA
:08000000FFFFFFFFFFFFFFFF00
:020000040030CA
:0E000000000C1F1EFF8301FF0FC00FE00F401A
:00000001FF
