:040000008AEF3CF057
:1078E3003F065B4F666D7D077F678001500302F3A0
:1078F300CF05F0F4CF06F001500402F35006260240
:10790300500302F350062605C001F006C002F01230
:1079130000E30EF66E780EF76E000EF86E00EE2F93
:10792300F010EE0BF00900F5CFEEFFE550E150FA51
:10793300E1000119EF3EF00C6E20EE2FF010EE0186
:10794300F00A0EDBCFE3FFE806FCE20C50010D0169
:107953000EF324D96E000EF420DA6EDF501200000D
:107963000E066E02AE06D0016C021ED8B0022A01CA
:107973000E066E04AE04D0036C041ED8B0042A03B2
:10798300500410D8B418D0010E056E04D0D890035B
:10799300360436052A04AEFAD70350015C045002BC
:1079A30058D8A004D00350015E0450025AD8900462
:1079B300320332052EF1D70650D8B404D0016C023D
:1079C3001ED8B0022A01C001F002C002F01200006A
:1079D3000E066E04AE06D0036C041ED8B0042A0152
:1079E3000E066E02AE06D0016C021ED8B0022A014A
:1079F3000E061A000E086E000E076E03500410D810
:107A0300B41CD0010E056E04D0D89003360436059D
:107A13002A04AEFAD7D890073608360350015C041F
:107A2300500258D8A005D00350015E0450025A07F3
:107A330080D89004320332052EEDD70650D8B40413
:107A4300D0076C081ED8B0082A07C001F008C0028E
:107A5300F01200070E816E00F081B80CD0270E01E2
:107A63006EF50EE82EFED7012EFCD700F081A8FE9E
:107A7300D7010E120081BA0CD0270E016EF50EE865
:107A83002EFED7012EFCD700F081AAFED7040E12DA
:107A93000081BC0CD0270E016EF50EE82EFED70137
:107AA3002EFCD700F081ACFED7070E120081BE0C6E
:107AB300D0270E016EF50EE82EFED7012EFCD7005F
:107AC300F081AEFED70E0E12000B0E816E00F08118
:107AD300B80CD0270E016EF50EE82EFED7012EFC52
:107AE300D700F081A8FED7020E120081BA0CD0276E
:107AF3000E016EF50EE82EFED7012EFCD700F081A5
:107B0300AAFED7050E120081BC0CD0270E016EF51C
:107B13000EE82EFED7012EFCD700F081ACFED7086D
:107B23000E120081BE0CD0270E016EF50EE82EFE5C
:107B3300D7012EFCD700F081AEFED7000E12000D48
:107B43000E816E00F081B80CD0270E016EF50EE8A1
:107B53002EFED7012EFCD700F081A8FED7030E120C
:107B63000081BA0CD0270E016EF50EE82EFED70168
:107B73002EFCD700F081AAFED7060E120081BC0CA2
:107B8300D0270E016EF50EE82EFED7012EFCD7008E
:107B9300F081ACFED7090E120081BE0CD0270E0176
:107BA3006EF50EE82EFED7012EFCD700F081AEFE57
:107BB300D70F0E12000E0E816E00F081B80CD02785
:107BC3000E016EF50EE82EFED7012EFCD700F081D4
:107BD300A8FED70A0E120081BA0CD0270E016EF54B
:107BE3000EE82EFED7012EFCD700F081AAFED70B9C
:107BF3000E120081BC0CD0270E016EF50EE82EFE8E
:107C0300D7012EFCD700F081ACFED70C0E120081F9
:107C1300BE0CD0270E016EF50EE82EFED7012EFC0A
:107C2300D700F081AEFED70D0E12000A0E12000F20
:107C33000EC16E000E956EF00E936E969496909212
:107C43009A9294849484908094809AF19E000E2654
:107C53006E000E256E000E286E000E276E000E2A93
:107C63006E000E296E000E1D6E000E1C6E000E1FA0
:107C73006E000E1E6E000E216E000E206E000E238F
:107C83006E000E226E000E2E6E000E2D6E000E2C58
:107C93006E000E2B6E000E246E0AEC3FF00DC02515
:107CA300F00EC026F025C001F026C002F0000E043D
:107CB3006E640E036EE9EC3CF001C02BF002C02CA5
:107CC300F025C001F026C002F0000E046E640E031E
:107CD3006EB1EC3CF001C02DF002C02EF02BC0279A
:107CE300F02CC028F02DC029F02EC02AF027C001A7
:107CF300F028C002F0000E046E0A0E036EE9EC3C9D
:107D0300F001C01CF002C01DF027C001F028C00222
:107D1300F0000E046E0A0E036EB1EC3CF001C01EBF
:107D2300F002C01FF029C001F02AC002F0000E04C7
:107D33006E0A0E036EE9EC3CF001C020F002C02194
:107D4300F029C001F02AC002F0000E046E0A0E03EF
:107D53006EB1EC3CF001C022F002C023F01C509D38
:107D6300EC3CF0836E808A210E1B6E760EE82EFEAD
:107D7300D71B2EFCD700D0809A1E509DEC3CF0837D
:107D83006E8084210E1B6E760EE82EFED71B2EFC12
:107D9300D700D0809420509DEC3CF0836E848021EA
:107DA3000E1B6E760EE82EFED71B2EFCD700D0845A
:107DB3009022509DEC3CF0836E8484210E1B6E76E2
:107DC3000EE82EFED71B2EFCD700D08494242A3233
:107DD3000E2418D8A404D02D4A2E2A000E246E3B5C
:107DE3000E2D182E10D8A47AD7000E2E6E000E2D4D
:107DF3006E2B4A2C2A3B0E2B182C10D8A46FD700BD
:107E03000E2C6E000E2B6E000E2E6E000E2D6E6667
:107E1300D7000E1A6E000E196E000E166E000E15A8
:107E23006E000E186E000E176E000E146E000E1309
:107E33006E2BEC3DF00F6E0F50196E1A6A1ABE0AC4
:107E4300D01A5004E1060E195CD8A004D0000E1A13
:107E53006E0A0E196E19509DEC3CF0836E808A29D0
:107E63000EE82EFED700D00A0E19181A10D8B4E067
:107E7300D72BEC3DF00F6E0F50156E166A19509DFF
:107E8300EC3CF0836E808A290EE82EFED700D0806A
:107E93009A15509DEC3CF0836E8084290EE82EFEEB
:107EA300D700D080940A0E15181610D8B4E1D72B3A
:107EB300EC3DF00F6E0F50176E186A18BE0AD018FB
:107EC3005004E1060E175CD8A004D0000E186E0A09
:107ED3000E176E19509DEC3CF0836E808A290EE8D4
:107EE3002EFED700D0809A15509DEC3CF0836E8017
:107EF30084290EE82EFED700D0809417509DEC3CC9
:107F0300F0836E8480290EE82EFED700D084900A79
:107F13000E17181810D8B4CBD72BEC3DF00F6E0FFB
:107F230050136E146A19509DEC3CF0836E808A29BD
:107F33000EE82EFED700D0809A15509DEC3CF083BE
:107F43006E8084290EE82EFED700D0809417509DB2
:107F5300EC3CF0836E8480290EE82EFED700D0849B
:107F63009013509DEC3CF0836E8484290EE82EFE22
:107F7300D700D084940A0E13181410D8B4CDD7198F
:107F8300C001F01AC002F0030E046EE80E036E7710
:107F9300EC3CF001C019F002C01AF015C001F01654
:107FA300C002F0000E046E640E036E77EC3CF00129
:107FB300C015F002C016F017C001F018C002F0009F
:107FC3000E046E0A0E036E77EC3CF001C017F0024C
:107FD300C018F0155019240F6E16501A20106E1782
:107FE300500F261850102213500F24116E145010E6
:0D7FF30020126E11C00DF012C00EF0120031
:020000040020DA
:08000000FFFFFFFFFFFFFFFF00
:020000040030CA
:0E000000040C1F1EFF8101FF0FC00FE00F4018
:00000001FF
