:0400000007EF00F016
:10000800148209ED00F097EF00F00600FACF01F036
:10001800FBCF02F0E9CF03F0EACF04F0E1CF05F01F
:10002800E2CF06F0D9CF07F0DACF08F0F3CF09F026
:10003800F4CF0AF0F6CF0BF0F7CF0CF0F8CF0DF0B5
:10004800F5CF0EF014C00FF015C010F016C011F067
:1000580017C012F09E9AAECF13F012C017F011C05D
:1000680016F010C015F00FC014F00EC0F5FF0DC04B
:10007800F8FF0CC0F7FF0BC0F6FF0AC0F4FF09C079
:10008800F3FF08C0DAFF07C0D9FF06C0E2FF05C0CA
:10009800E1FF04C0EAFF03C0E9FF02C0FBFF01C0A3
:1000A800FAFF149211000F0EC16E96909692000EF0
:1000B800846E9494948C948EAC94AC98AB8EAB88EC
:1000C800B886000EB06E400EAF6E9B0ECB6E070E5C
:1000D800CA6E9E9A9D8AD09EF28CF28E16D0848229
:1000E80084900C0EBD6E2E0EBE6E300EBD120DD05D
:1000F800849284800C0EBD6E8C0EBE6EBD50CF0BEC
:100108001009BD6E02D0000E836E1350480AD8B491
:10011800EFD7040AD8B4E3D7240AD8B4E9D7040A35
:10012800D8B4DDD7F0D7136A14901492000EF86E85
:06013800000157EF00F08A
:020000040020DA
:08000000FFFFFFFFFFFFFFFF00
:020000040030CA
:0E000000040C1F1EFF8101FF0FC00FE00F4018
:00000001FF
