:04000000C9EF00F054
:060008003682CBED00F092
:100018003680D8CF19F0E8CF1AF0E0CF1BF0FACF2E
:100028001CF0FBCF1DF0E9CF1EF0EACF1FF0E1CFA7
:1000380020F0E2CF21F0D9CF22F0DACF23F0F3CFAE
:1000480024F0F4CF25F0F6CF26F0F7CF27F0F8CF3D
:1000580028F0F5CF29F036C02AF037C02BF038C089
:100068002CF039C02DF0070E186E580E176E5A0E68
:10007800E82EFED7172EFCD7182EFAD7000E356EAD
:10008800010E346EF0928368000E2F6E000E2E6EF5
:100098002FBE06D02F504DE1030E2E5CD8B049D0AC
:1000A800000E316E000E306E31BE06D031501AE1AE
:1000B800070E305CD8B016D0D8903434346E35344E
:1000C800356E3450FF0A836E060E186E130E176EC7
:1000D800AE0EE82EFED7172EFCD7182EFAD7304AC8
:1000E800312AE2D7000E336E070E326E33BE1ED0B1
:1000F800335003E13204D8A019D035343530176EA7
:100108003430346E17C035F03450FF0A836E060E53
:10011800186E130E176EAE0EE82EFED7172EFCD7EC
:10012800182EFAD73206D8A03306E0D72E4A2F2A3F
:10013800AFD72DC039F02CC038F02BC037F02AC00B
:1001480036F029C0F5FF28C0F8FF27C0F7FF26C002
:10015800F6FF25C0F4FF24C0F3FF23C0DAFF22C056
:10016800D9FF21C0E2FF20C0E1FF1FC0EAFF1EC087
:10017800E9FF1DC0FBFF1CC0FAFF1BC0E0FF1AC04F
:10018800E8FF19C0D8FF3690100078EF01F006009C
:10019800FACF03F0FBCF04F0E9CF05F0EACF06F081
:1001A800E1CF07F0E2CF08F0D9CF09F0DACF0AF0B3
:1001B800F3CF0BF0F4CF0CF0F6CF0DF0F7CF0EF035
:1001C800F8CF0FF0F5CF10F036C011F037C012F0AD
:1001D80038C013F039C014F0070E026E580E016EC5
:1001E8005A0EE82EFED7012EFCD7022EFAD7F09031
:1001F800000E166E000E156E16BE06D0165021E1C2
:10020800030E155CD8B01DD0550E836E070E026E16
:10021800580E016E5A0EE82EFED7012EFCD7022E7C
:10022800FAD7AA0E836E070E026E580E016E5A0E8A
:10023800E82EFED7012EFCD7022EFAD7154A162A29
:10024800DBD714C039F013C038F012C037F011C032
:1002580036F010C0F5FF0FC0F8FF0EC0F7FF0DC055
:10026800F6FF0CC0F4FF0BC0F3FF0AC0DAFF09C0A9
:10027800D9FF08C0E2FF07C0E1FF06C0EAFF05C0DA
:10028800E9FF04C0FBFF03C0FAFF36921100F19E9C
:100298008368000E956E9368F090F19AF086F0925C
:1002A800F198F09EF088D08EF28CF28E000E836E5C
:1002B800070E0001616F580E606F590EE82EFED7C9
:1002C800602FFCD7612FFAD700D08368070E000192
:1002D800616F580E606F590EE82EFED7602FFCD75D
:1002E800612FFAD700D0E2D73690369200014BEF53
:0202F80001F013
:020000040020DA
:08000000FFFFFFFFFFFFFFFF00
:020000040030CA
:0E000000040C1F1EFF8101FF0FC00FE00F4018
:00000001FF
