:0400000007EF00F016
:10000800158209ED00F08EEF00F00600FACF01F03E
:10001800FBCF02F0E9CF03F0EACF04F0E1CF05F01F
:10002800E2CF06F0D9CF07F0DACF08F0F3CF09F026
:10003800F4CF0AF0F6CF0BF0F7CF0CF0F8CF0DF0B5
:10004800F5CF0EF015C00FF016C010F017C011F064
:1000580018C012F09EA018D09E900B0ECF6EDC0E2A
:10006800CE6E134A142A050E13181410D8B48370D0
:1000780014BE0AD0145004E1050E135CD8A004D0B5
:10008800000E146E000E136EA1A206D0A1923C0EB3
:10009800B36EB00EB26E837212C018F011C017F0B2
:1000A80010C016F00FC015F00EC0F5FF0DC0F8FF18
:1000B8000CC0F7FF0BC0F6FF0AC0F4FF09C0F3FF3E
:1000C80008C0DAFF07C0D9FF06C0E2FF05C0E1FF9C
:1000D80004C0EAFF03C0E9FF02C0FBFF01C0FAFF4A
:1000E80015921100F19E0F0EC16E8368000E956E79
:1000F8009D80A082D09EF28EF28C0B0ECF6EDC0E0D
:10010800CE6E350ECD6E3C0EB36EB00EB26E310EA5
:0E011800B16EFFD715901592000176EF00F042
:020000040020DA
:08000000FFFFFFFFFFFFFFFF00
:020000040030CA
:0E000000040C1F1EFF8101FF0FC00FE00F4018
:00000001FF
