:0400000007EF00F016
:0A000800338206ED04F030EF07F03C
:100800000052454C4F47494F003A00000600FACFCE
:1008100009F0FBCF0AF0E9CF0BF0EACF0CF0E1CF03
:100820000DF0E2CF0EF0D9CF0FF0DACF10F0F3CF0A
:1008300011F0F4CF12F0F6CF13F0F7CF14F0F8CF99
:1008400015F0F5CF16F033C017F034C018F035C0EE
:1008500019F036C01AF09E94314A322AC70EA3EC22
:1008600006F0090E026E080E036E16EC07F0CA0EB3
:10087000A3EC06F0090E026E080E036E16EC07F0EC
:10088000640E31183210D8A42DD0234A242A23C054
:1008900001F024C002F0000E046E0A0E036EACECF0
:1008A00005F001C02DF002C02EF023C001F024C0DD
:1008B00002F0000E046E0A0E036EEEEC05F001C0AD
:1008C0002FF002C030F0CB0EA3EC06F02D50300F0D
:1008D00084EC06F02F50300F84EC06F0000E326EE0
:1008E000000E316E24BE33D0245004E13C0E235C54
:1008F000D8A02DD0000E246E000E236E214A222A8D
:1009000021C001F022C002F0000E046E0A0E036E38
:10091000ACEC05F001C029F002C02AF021C001F0C2
:1009200022C002F0000E046E0A0E036EEEEC05F01B
:1009300001C02BF002C02CF0C80EA3EC06F0295029
:10094000300F84EC06F02B50300F84EC06F022BE02
:1009500033D0225004E13C0E215CD8A02DD0000EF3
:10096000226E000E216E1F4A202A1FC001F020C0F7
:1009700002F0000E046E0A0E036EACEC05F001C02E
:1009800027F002C028F01FC001F020C002F0000EC6
:10099000046E0A0E036EEEEC05F001C025F002C0F5
:1009A00026F0C50EA3EC06F02750300F84EC06F0BD
:1009B0002550300F84EC06F020BE0CD0205004E10E
:1009C000180E1F5CD8A006D0000E206E000E1F6E01
:1009D000234A242A1AC036F019C035F018C034F062
:1009E00017C033F016C0F5FF15C0F8FF14C0F7FFAD
:1009F00013C0F6FF12C0F4FF11C0F3FF10C0DAFFFE
:100A00000FC0D9FF0EC0E2FF0DC0E1FF0CC0EAFF2E
:100A10000BC0E9FF0AC0FBFF09C0FAFF33921100C7
:100A20001C6E0F0E83160F0E951696949690969246
:100A30008D948D908D9248EC07F0300E65EC06F0A9
:100A40003FEC07F03FEC07F0300E65EC06F03FECB2
:100A500007F03FEC07F0320E65EC06F0C2EC06F052
:100A60000009D8A4FBD7C2EC06F00009D8A4FBD734
:100A70001C5065EC06F0C2EC06F00009D8A4FBD7C8
:100A8000080E65EC06F0C2EC06F00009D8A4FBD70E
:100A90000F0E65EC06F0C2EC06F00009D8A4FBD7F7
:100AA000010E65EC06F0C2EC06F00009D8A4FBD7F5
:100AB000040E65EC06F0C2EC06F00009D8A4FBD7E2
:100AC000800E26EC06F01200280E10EC05F0010E48
:100AD00065EC06F00D0E1E6EFC0EE82EFED71E2EE7
:100AE000FCD7850E65EC06F0010E1C6E080E1D6E1F
:100AF000FCEC06F00C0E65EC06F0B186B19C000E25
:100B0000CF6E000ECE6E010ECD6EC30EBF6E500EB8
:100B1000BE6E0B0EBD6E9E949D84D09EF28EF28CA6
:100B2000CB0E65EC06F0300E46EC06F0300E46ECCF
:100B300006F0C80E65EC06F0300E46EC06F0300EFE
:100B400046EC06F0C50E65EC06F0300E46EC06F0FD
:100B5000300E46EC06F0FFD7000E066E04AE06D04F
:100B6000036C041ED8B0042A010E066E02AE06D035
:100B7000016C021ED8B0022A010E061A000E086E81
:100B8000000E076E03500410D8B41CD0010E056E81
:100B900004D0D89003360436052A04AEFAD7D8908C
:100BA000073608360350015C04500258D8A005D01F
:100BB0000350015E0450025A0780D8900432033279
:100BC000052EEDD70650D8B404D0076C081ED8B057
:100BD000082A07C001F008C002F01200000E066EDD
:100BE00002AE06D0016C021ED8B0022A010E066EBB
:100BF00004AE04D0036C041ED8B0042A03500410C1
:100C0000D8B418D0010E056E04D0D890033604363F
:100C1000052A04AEFAD70350015C04500258D8A04C
:100C200004D00350015E0450025AD89004320332BB
:100C3000052EF1D70650D8B404D0016C021ED8B0EE
:100C4000022A01C001F002C002F012001B6E0F0E5A
:100C500095160F0E83161B508009F00B83128D948E
:100C60008D9050EC07F08D8250EC07F08D920F0EB6
:100C700083161B38F00BF00B831250EC07F08D82BB
:100C800050EC07F08D92F00E951212001B6E0F0EB5
:100C900095160F0E83161B50F00B83128D808D94CA
:100CA00050EC07F08D8250EC07F08D920F0E8316FA
:100CB0001B38F00BF00B831250EC07F08D8250ECD8
:100CC00007F08D92F00E951212001B6E0F0E951606
:100CD0000F0E83161B50F00B83128D948D9050ECE9
:100CE00007F08D8250EC07F08D920F0E83161B38A3
:100CF000F00BF00B831250EC07F08D8250EC07F0F4
:100D00008D92F00E95121200016E0F0E95160F0EB9
:100D100083160150F00B83128D808D9455EC07F0F3
:100D20008D8255EC07F08D920F0E83160138F00B73
:100D3000F00B831255EC07F08D8255EC07F08D9285
:100D4000F00E95121200016E0F0E95160F0E8316FF
:100D50000150F00B83128D948D9055EC07F08D822D
:100D600055EC07F08D920F0E83160138F00BF00B47
:100D7000831255EC07F08D8255EC07F08D92F00E42
:100D8000951212008D848D9050EC07F08D8250ECFE
:100D900007F083AE0AD08D9250EC07F08D8250ECB4
:100DA00007F08D928D94010E12008D9250EC07F099
:100DB0008D8250EC07F08D928D94000E12008D8480
:100DC0008D9055EC07F08D8255EC07F083AE0AD07C
:100DD0008D9255EC07F08D8255EC07F08D928D9435
:100DE000010E12008D9255EC07F08D8255EC07F044
:100DF0008D928D94000E12000FD0C2EC06F0000907
:100E0000D8A4FBD71CC0F6FF1DC0F7FF0800F550A3
:100E100046EC06F01C4A1D2A1CC0F6FF1DC0F7FF59
:100E20000800F5500009D8B41200E7D70FD0DFEC66
:100E300006F00009D8A4FBD702C0F6FF03C0F7FFF5
:100E40000800F55084EC06F0024A032A02C0F6FFBF
:100E500003C0F7FF0800F5500009D8B41200E7D727
:100E600000EE1FF0140EEE6AE806FDE133903392B7
:100E7000000EF86E080EF76E000164EF05F0210E0B
:100E80001B6E760EE82EFED71B2EFCD700D012006C
:100E9000620E1B6E660EE82EFED71B2EFCD71200CC
:100EA000210EE82EFED700F01200210EE82EFED70C
:040EB00000F012003C
:020000040020DA
:08000000FFFFFFFFFFFFFFFF00
:020000040030CA
:0E000000040C1F1EFF8101FF0FC00FE00F4018
:00000001FF
